{
  "contractName": "QuestManager",
  "abi": [
    {
      "inputs": [],
      "stateMutability": "nonpayable",
      "type": "constructor"
    },
    {
      "anonymous": false,
      "inputs": [
        {
          "indexed": false,
          "internalType": "uint256",
          "name": "id",
          "type": "uint256"
        },
        {
          "indexed": false,
          "internalType": "string",
          "name": "description",
          "type": "string"
        },
        {
          "indexed": false,
          "internalType": "uint256",
          "name": "xpReward",
          "type": "uint256"
        }
      ],
      "name": "QuestAdded",
      "type": "event"
    },
    {
      "anonymous": false,
      "inputs": [
        {
          "indexed": true,
          "internalType": "address",
          "name": "player",
          "type": "address"
        },
        {
          "indexed": false,
          "internalType": "uint256",
          "name": "questId",
          "type": "uint256"
        },
        {
          "indexed": false,
          "internalType": "uint256",
          "name": "xpReward",
          "type": "uint256"
        },
        {
          "indexed": false,
          "internalType": "uint256",
          "name": "timestamp",
          "type": "uint256"
        }
      ],
      "name": "QuestCompleted",
      "type": "event"
    },
    {
      "inputs": [
        {
          "internalType": "address",
          "name": "",
          "type": "address"
        },
        {
          "internalType": "uint256",
          "name": "",
          "type": "uint256"
        }
      ],
      "name": "completed",
      "outputs": [
        {
          "internalType": "bool",
          "name": "",
          "type": "bool"
        }
      ],
      "stateMutability": "view",
      "type": "function",
      "constant": true
    },
    {
      "inputs": [
        {
          "internalType": "uint256",
          "name": "",
          "type": "uint256"
        }
      ],
      "name": "quests",
      "outputs": [
        {
          "internalType": "uint256",
          "name": "id",
          "type": "uint256"
        },
        {
          "internalType": "string",
          "name": "description",
          "type": "string"
        },
        {
          "internalType": "uint256",
          "name": "xpReward",
          "type": "uint256"
        },
        {
          "internalType": "bool",
          "name": "isActive",
          "type": "bool"
        }
      ],
      "stateMutability": "view",
      "type": "function",
      "constant": true
    },
    {
      "inputs": [
        {
          "internalType": "string",
          "name": "_description",
          "type": "string"
        },
        {
          "internalType": "uint256",
          "name": "_xpReward",
          "type": "uint256"
        }
      ],
      "name": "addQuest",
      "outputs": [],
      "stateMutability": "nonpayable",
      "type": "function"
    },
    {
      "inputs": [
        {
          "internalType": "uint256",
          "name": "_id",
          "type": "uint256"
        }
      ],
      "name": "completeQuest",
      "outputs": [],
      "stateMutability": "nonpayable",
      "type": "function"
    },
    {
      "inputs": [],
      "name": "getQuests",
      "outputs": [
        {
          "components": [
            {
              "internalType": "uint256",
              "name": "id",
              "type": "uint256"
            },
            {
              "internalType": "string",
              "name": "description",
              "type": "string"
            },
            {
              "internalType": "uint256",
              "name": "xpReward",
              "type": "uint256"
            },
            {
              "internalType": "bool",
              "name": "isActive",
              "type": "bool"
            }
          ],
          "internalType": "struct QuestManager.Quest[]",
          "name": "",
          "type": "tuple[]"
        }
      ],
      "stateMutability": "view",
      "type": "function",
      "constant": true
    },
    {
      "inputs": [
        {
          "internalType": "address",
          "name": "_player",
          "type": "address"
        }
      ],
      "name": "getQuestCompleted",
      "outputs": [
        {
          "internalType": "uint256[]",
          "name": "",
          "type": "uint256[]"
        }
      ],
      "stateMutability": "view",
      "type": "function",
      "constant": true
    },
    {
      "inputs": [
        {
          "internalType": "address",
          "name": "_owner",
          "type": "address"
        }
      ],
      "name": "isOwner",
      "outputs": [
        {
          "internalType": "bool",
          "name": "",
          "type": "bool"
        }
      ],
      "stateMutability": "view",
      "type": "function",
      "constant": true
    }
  ],
  "bytecode": "0x608060405234801561001057600080fd5b50336000806101000a81548173ffffffffffffffffffffffffffffffffffffffff021916908373ffffffffffffffffffffffffffffffffffffffff16021790555060006003819055506116f4806100686000396000f3fe608060405234801561001057600080fd5b506004361061007d5760003560e01c80637adcad8b1161005b5780637adcad8b146100fe578063a2935b071461011c578063aa995c2c14610138578063e085f980146101685761007d565b80632f54bf6e14610082578063528be0a9146100b2578063541cc326146100ce575b600080fd5b61009c60048036038101906100979190610a81565b61019b565b6040516100a99190610ac9565b60405180910390f35b6100cc60048036038101906100c79190610b1a565b6101f3565b005b6100e860048036038101906100e39190610a81565b610414565b6040516100f59190610c05565b60405180910390f35b6101066105bc565b6040516101139190610deb565b60405180910390f35b61013660048036038101906101319190610f42565b61073d565b005b610152600480360381019061014d9190610f9e565b6108f1565b60405161015f9190610ac9565b60405180910390f35b610182600480360381019061017d9190610b1a565b610920565b6040516101929493929190611037565b60405180910390f35b60008173ffffffffffffffffffffffffffffffffffffffff1660008054906101000a900473ffffffffffffffffffffffffffffffffffffffff1673ffffffffffffffffffffffffffffffffffffffff16149050919050565b600115156001600083815260200190815260200160002060030160009054906101000a900460ff1615151461025d576040517f08c379a0000000000000000000000000000000000000000000000000000000008152600401610254906110cf565b60405180910390fd5b6003548111156102a2576040517f08c379a00000000000000000000000000000000000000000000000000000000081526004016102999061113b565b60405180910390fd5b600260003373ffffffffffffffffffffffffffffffffffffffff1673ffffffffffffffffffffffffffffffffffffffff168152602001908152602001600020600082815260200190815260200160002060009054906101000a900460ff1615610340576040517f08c379a0000000000000000000000000000000000000000000000000000000008152600401610337906111a7565b60405180910390fd5b6001600260003373ffffffffffffffffffffffffffffffffffffffff1673ffffffffffffffffffffffffffffffffffffffff168152602001908152602001600020600083815260200190815260200160002060006101000a81548160ff0219169083151502179055503373ffffffffffffffffffffffffffffffffffffffff167f954c56630776f697dcdbcd8b735d0d97d82b2be631e6673fd56563a1559ede5d82600160008581526020019081526020016000206002015442604051610409939291906111c7565b60405180910390a250565b6060600080600190505b60035481116104ac57600260008573ffffffffffffffffffffffffffffffffffffffff1673ffffffffffffffffffffffffffffffffffffffff168152602001908152602001600020600082815260200190815260200160002060009054906101000a900460ff16156104995781806104959061122d565b9250505b80806104a49061122d565b91505061041e565b5060008167ffffffffffffffff8111156104c9576104c8610e17565b5b6040519080825280602002602001820160405280156104f75781602001602082028036833780820191505090505b509050600080600190505b60035481116105b057600260008773ffffffffffffffffffffffffffffffffffffffff1673ffffffffffffffffffffffffffffffffffffffff168152602001908152602001600020600082815260200190815260200160002060009054906101000a900460ff161561059d578083838151811061058257610581611275565b5b60200260200101818152505081806105999061122d565b9250505b80806105a89061122d565b915050610502565b50819350505050919050565b6060600060035467ffffffffffffffff8111156105dc576105db610e17565b5b60405190808252806020026020018201604052801561061557816020015b6106026109e5565b8152602001906001900390816105fa5790505b50905060005b60035481101561073557600160008281526020019081526020016000206040518060800160405290816000820154815260200160018201805461065d906112d3565b80601f0160208091040260200160405190810160405280929190818152602001828054610689906112d3565b80156106d65780601f106106ab576101008083540402835291602001916106d6565b820191906000526020600020905b8154815290600101906020018083116106b957829003601f168201915b50505050508152602001600282015481526020016003820160009054906101000a900460ff16151515158152505082828151811061071757610716611275565b5b6020026020010181905250808061072d9061122d565b91505061061b565b508091505090565b60008054906101000a900473ffffffffffffffffffffffffffffffffffffffff1673ffffffffffffffffffffffffffffffffffffffff163373ffffffffffffffffffffffffffffffffffffffff16146107cb576040517f08c379a00000000000000000000000000000000000000000000000000000000081526004016107c290611350565b60405180910390fd5b6000811161080e576040517f08c379a0000000000000000000000000000000000000000000000000000000008152600401610805906113e2565b60405180910390fd5b600360008154809291906108219061122d565b9190505550600060035490506040518060800160405280828152602001848152602001838152602001600115158152506001600083815260200190815260200160002060008201518160000155602082015181600101908161088391906115ae565b506040820151816002015560608201518160030160006101000a81548160ff0219169083151502179055509050507f92c8fbb6f3887e1068fe663eb41f1eaa90bea0e5044f45ab464a23a934f2b88f8184846040516108e493929190611680565b60405180910390a1505050565b60026020528160005260406000206020528060005260406000206000915091509054906101000a900460ff1681565b6001602052806000526040600020600091509050806000015490806001018054610949906112d3565b80601f0160208091040260200160405190810160405280929190818152602001828054610975906112d3565b80156109c25780601f10610997576101008083540402835291602001916109c2565b820191906000526020600020905b8154815290600101906020018083116109a557829003601f168201915b5050505050908060020154908060030160009054906101000a900460ff16905084565b60405180608001604052806000815260200160608152602001600081526020016000151581525090565b6000604051905090565b600080fd5b600080fd5b600073ffffffffffffffffffffffffffffffffffffffff82169050919050565b6000610a4e82610a23565b9050919050565b610a5e81610a43565b8114610a6957600080fd5b50565b600081359050610a7b81610a55565b92915050565b600060208284031215610a9757610a96610a19565b5b6000610aa584828501610a6c565b91505092915050565b60008115159050919050565b610ac381610aae565b82525050565b6000602082019050610ade6000830184610aba565b92915050565b6000819050919050565b610af781610ae4565b8114610b0257600080fd5b50565b600081359050610b1481610aee565b92915050565b600060208284031215610b3057610b2f610a19565b5b6000610b3e84828501610b05565b91505092915050565b600081519050919050565b600082825260208201905092915050565b6000819050602082019050919050565b610b7c81610ae4565b82525050565b6000610b8e8383610b73565b60208301905092915050565b6000602082019050919050565b6000610bb282610b47565b610bbc8185610b52565b9350610bc783610b63565b8060005b83811015610bf8578151610bdf8882610b82565b9750610bea83610b9a565b925050600181019050610bcb565b5085935050505092915050565b60006020820190508181036000830152610c1f8184610ba7565b905092915050565b600081519050919050565b600082825260208201905092915050565b6000819050602082019050919050565b600081519050919050565b600082825260208201905092915050565b60005b83811015610c8d578082015181840152602081019050610c72565b60008484015250505050565b6000601f19601f8301169050919050565b6000610cb582610c53565b610cbf8185610c5e565b9350610ccf818560208601610c6f565b610cd881610c99565b840191505092915050565b610cec81610aae565b82525050565b6000608083016000830151610d0a6000860182610b73565b5060208301518482036020860152610d228282610caa565b9150506040830151610d376040860182610b73565b506060830151610d4a6060860182610ce3565b508091505092915050565b6000610d618383610cf2565b905092915050565b6000602082019050919050565b6000610d8182610c27565b610d8b8185610c32565b935083602082028501610d9d85610c43565b8060005b85811015610dd95784840389528151610dba8582610d55565b9450610dc583610d69565b925060208a01995050600181019050610da1565b50829750879550505050505092915050565b60006020820190508181036000830152610e058184610d76565b905092915050565b600080fd5b600080fd5b7f4e487b7100000000000000000000000000000000000000000000000000000000600052604160045260246000fd5b610e4f82610c99565b810181811067ffffffffffffffff82111715610e6e57610e6d610e17565b5b80604052505050565b6000610e81610a0f565b9050610e8d8282610e46565b919050565b600067ffffffffffffffff821115610ead57610eac610e17565b5b610eb682610c99565b9050602081019050919050565b82818337600083830152505050565b6000610ee5610ee084610e92565b610e77565b905082815260208101848484011115610f0157610f00610e12565b5b610f0c848285610ec3565b509392505050565b600082601f830112610f2957610f28610e0d565b5b8135610f39848260208601610ed2565b91505092915050565b60008060408385031215610f5957610f58610a19565b5b600083013567ffffffffffffffff811115610f7757610f76610a1e565b5b610f8385828601610f14565b9250506020610f9485828601610b05565b9150509250929050565b60008060408385031215610fb557610fb4610a19565b5b6000610fc385828601610a6c565b9250506020610fd485828601610b05565b9150509250929050565b610fe781610ae4565b82525050565b600082825260208201905092915050565b600061100982610c53565b6110138185610fed565b9350611023818560208601610c6f565b61102c81610c99565b840191505092915050565b600060808201905061104c6000830187610fde565b818103602083015261105e8186610ffe565b905061106d6040830185610fde565b61107a6060830184610aba565b95945050505050565b7f5175657374206973206e6f742061637469766500000000000000000000000000600082015250565b60006110b9601383610fed565b91506110c482611083565b602082019050919050565b600060208201905081810360008301526110e8816110ac565b9050919050565b7f496e76616c696420717565737420494400000000000000000000000000000000600082015250565b6000611125601083610fed565b9150611130826110ef565b602082019050919050565b6000602082019050818103600083015261115481611118565b9050919050565b7f596f7520616c726561647920636f6d706c657465642074686973207175657374600082015250565b6000611191602083610fed565b915061119c8261115b565b602082019050919050565b600060208201905081810360008301526111c081611184565b9050919050565b60006060820190506111dc6000830186610fde565b6111e96020830185610fde565b6111f66040830184610fde565b949350505050565b7f4e487b7100000000000000000000000000000000000000000000000000000000600052601160045260246000fd5b600061123882610ae4565b91507fffffffffffffffffffffffffffffffffffffffffffffffffffffffffffffffff820361126a576112696111fe565b5b600182019050919050565b7f4e487b7100000000000000000000000000000000000000000000000000000000600052603260045260246000fd5b7f4e487b7100000000000000000000000000000000000000000000000000000000600052602260045260246000fd5b600060028204905060018216806112eb57607f821691505b6020821081036112fe576112fd6112a4565b5b50919050565b7f4f6e6c7920746865206f776e65722063616e2061646420717565737473000000600082015250565b600061133a601d83610fed565b915061134582611304565b602082019050919050565b600060208201905081810360008301526113698161132d565b9050919050565b7f585020726577617264206d757374206265206120706f736974697665206e756d60008201527f6265720000000000000000000000000000000000000000000000000000000000602082015250565b60006113cc602383610fed565b91506113d782611370565b604082019050919050565b600060208201905081810360008301526113fb816113bf565b9050919050565b60008190508160005260206000209050919050565b60006020601f8301049050919050565b600082821b905092915050565b6000600883026114647fffffffffffffffffffffffffffffffffffffffffffffffffffffffffffffffff82611427565b61146e8683611427565b95508019841693508086168417925050509392505050565b6000819050919050565b60006114ab6114a66114a184610ae4565b611486565b610ae4565b9050919050565b6000819050919050565b6114c583611490565b6114d96114d1826114b2565b848454611434565b825550505050565b600090565b6114ee6114e1565b6114f98184846114bc565b505050565b5b8181101561151d576115126000826114e6565b6001810190506114ff565b5050565b601f8211156115625761153381611402565b61153c84611417565b8101602085101561154b578190505b61155f61155785611417565b8301826114fe565b50505b505050565b600082821c905092915050565b600061158560001984600802611567565b1980831691505092915050565b600061159e8383611574565b9150826002028217905092915050565b6115b782610c53565b67ffffffffffffffff8111156115d0576115cf610e17565b5b6115da82546112d3565b6115e5828285611521565b600060209050601f8311600181146116185760008415611606578287015190505b6116108582611592565b865550611678565b601f19841661162686611402565b60005b8281101561164e57848901518255600182019150602085019450602081019050611629565b8683101561166b5784890151611667601f891682611574565b8355505b6001600288020188555050505b505050505050565b60006060820190506116956000830186610fde565b81810360208301526116a78185610ffe565b90506116b66040830184610fde565b94935050505056fea264697066735822122013c4afe8758db451c3851f91b7de5a1ad4bd35bf8a37ac48fa984f390bed59a464736f6c63430008110033",
  "immutableReferences": {},
  "source": "// SPDX-License-Identifier: GPL-3.0\r\npragma solidity ^0.8.0;\r\n\r\ncontract QuestManager {\r\n    struct Quest {\r\n        uint id;\r\n        string description;\r\n        uint xpReward;\r\n        bool isActive;\r\n    }\r\n\r\n    address private owner;\r\n    mapping(uint => Quest) public quests;\r\n    mapping(address => mapping(uint => bool)) public completed;\r\n    uint private questCount;\r\n\r\n    event QuestAdded(uint id, string description, uint xpReward);\r\n    event QuestCompleted(address indexed player, uint questId, uint xpReward, uint timestamp);\r\n\r\n    constructor() {\r\n        owner = msg.sender;\r\n        questCount = 0;\r\n    }\r\n\r\n    function addQuest(string memory _description, uint _xpReward) public {\r\n        require(msg.sender == owner, \"Only the owner can add quests\");\r\n        require(_xpReward > 0, \"XP reward must be a positive number\");    \r\n\r\n        questCount++;\r\n        uint id = questCount;\r\n        quests[id] = Quest(id, _description, _xpReward, true);\r\n        emit QuestAdded(id, _description, _xpReward);\r\n    }\r\n\r\n    function completeQuest(uint _id) public {\r\n        require(quests[_id].isActive == true, \"Quest is not active\");\r\n        require(_id <= questCount, \"Invalid quest ID\");\r\n        require(!completed[msg.sender][_id], \"You already completed this quest\");\r\n\r\n        completed[msg.sender][_id] = true;\r\n\r\n        emit QuestCompleted(msg.sender, _id, quests[_id].xpReward, block.timestamp);\r\n    }\r\n    \r\n    function getQuests() public view returns (Quest[] memory) {\r\n        Quest[] memory questsList = new Quest[](questCount);\r\n        for (uint i = 0; i < questCount; i++) {\r\n            questsList[i] = quests[i];\r\n        }\r\n        return questsList;\r\n    }\r\n\r\n    function getQuestCompleted(address _player) public view returns (uint[] memory) {\r\n        uint completedCount = 0;\r\n        for (uint i = 1; i <= questCount; i++) {\r\n            if (completed[_player][i]) {\r\n                completedCount++;\r\n            }\r\n        }\r\n\r\n        uint[] memory completedQuests = new uint[](completedCount);\r\n        uint index = 0;\r\n        for (uint i = 1; i <= questCount; i++) {\r\n            if (completed[_player][i]) {\r\n                completedQuests[index] = i;\r\n                index++;\r\n            }\r\n        }\r\n        return completedQuests;\r\n    }\r\n\r\n\r\n    function isOwner(address _owner) public view returns(bool){\r\n        return (owner == _owner);\r\n    }\r\n\r\n}\r\n",
  "sourcePath": "C:\\Users\\franc\\OneDrive\\PERSONAL\\CODE\\ChainQuest\\contracts\\contracts\\QuestManager.sol",
  "compiler": {
    "name": "solc",
    "version": "0.8.17+commit.8df45f5f.Emscripten.clang"
  },
  "schemaVersion": "3.4.16",
  "updatedAt": "2025-09-19T09:18:19.121Z",
  "networkType": "ethereum",
  "devdoc": {
    "kind": "dev",
    "methods": {},
    "version": 1
  },
  "userdoc": {
    "kind": "user",
    "methods": {},
    "version": 1
  }
}