{
  "contractName": "AdventureNFT",
  "abi": [
    {
      "inputs": [],
      "stateMutability": "nonpayable",
      "type": "constructor"
    },
    {
      "anonymous": false,
      "inputs": [
        {
          "indexed": true,
          "internalType": "address",
          "name": "owner",
          "type": "address"
        },
        {
          "indexed": true,
          "internalType": "address",
          "name": "approved",
          "type": "address"
        },
        {
          "indexed": true,
          "internalType": "uint256",
          "name": "tokenId",
          "type": "uint256"
        }
      ],
      "name": "Approval",
      "type": "event"
    },
    {
      "anonymous": false,
      "inputs": [
        {
          "indexed": true,
          "internalType": "address",
          "name": "owner",
          "type": "address"
        },
        {
          "indexed": true,
          "internalType": "address",
          "name": "operator",
          "type": "address"
        },
        {
          "indexed": false,
          "internalType": "bool",
          "name": "approved",
          "type": "bool"
        }
      ],
      "name": "ApprovalForAll",
      "type": "event"
    },
    {
      "anonymous": false,
      "inputs": [
        {
          "indexed": true,
          "internalType": "address",
          "name": "from",
          "type": "address"
        },
        {
          "indexed": true,
          "internalType": "address",
          "name": "to",
          "type": "address"
        },
        {
          "indexed": true,
          "internalType": "uint256",
          "name": "tokenId",
          "type": "uint256"
        }
      ],
      "name": "Transfer",
      "type": "event"
    },
    {
      "inputs": [
        {
          "internalType": "address",
          "name": "to",
          "type": "address"
        },
        {
          "internalType": "uint256",
          "name": "tokenId",
          "type": "uint256"
        }
      ],
      "name": "approve",
      "outputs": [],
      "stateMutability": "nonpayable",
      "type": "function"
    },
    {
      "inputs": [
        {
          "internalType": "address",
          "name": "owner",
          "type": "address"
        }
      ],
      "name": "balanceOf",
      "outputs": [
        {
          "internalType": "uint256",
          "name": "",
          "type": "uint256"
        }
      ],
      "stateMutability": "view",
      "type": "function",
      "constant": true
    },
    {
      "inputs": [],
      "name": "baseTokenURI",
      "outputs": [
        {
          "internalType": "string",
          "name": "",
          "type": "string"
        }
      ],
      "stateMutability": "view",
      "type": "function",
      "constant": true
    },
    {
      "inputs": [
        {
          "internalType": "uint256",
          "name": "tokenId",
          "type": "uint256"
        }
      ],
      "name": "getApproved",
      "outputs": [
        {
          "internalType": "address",
          "name": "",
          "type": "address"
        }
      ],
      "stateMutability": "view",
      "type": "function",
      "constant": true
    },
    {
      "inputs": [
        {
          "internalType": "address",
          "name": "owner",
          "type": "address"
        },
        {
          "internalType": "address",
          "name": "operator",
          "type": "address"
        }
      ],
      "name": "isApprovedForAll",
      "outputs": [
        {
          "internalType": "bool",
          "name": "",
          "type": "bool"
        }
      ],
      "stateMutability": "view",
      "type": "function",
      "constant": true
    },
    {
      "inputs": [],
      "name": "name",
      "outputs": [
        {
          "internalType": "string",
          "name": "",
          "type": "string"
        }
      ],
      "stateMutability": "view",
      "type": "function",
      "constant": true
    },
    {
      "inputs": [
        {
          "internalType": "uint256",
          "name": "tokenId",
          "type": "uint256"
        }
      ],
      "name": "ownerOf",
      "outputs": [
        {
          "internalType": "address",
          "name": "",
          "type": "address"
        }
      ],
      "stateMutability": "view",
      "type": "function",
      "constant": true
    },
    {
      "inputs": [
        {
          "internalType": "address",
          "name": "from",
          "type": "address"
        },
        {
          "internalType": "address",
          "name": "to",
          "type": "address"
        },
        {
          "internalType": "uint256",
          "name": "tokenId",
          "type": "uint256"
        }
      ],
      "name": "safeTransferFrom",
      "outputs": [],
      "stateMutability": "nonpayable",
      "type": "function"
    },
    {
      "inputs": [
        {
          "internalType": "address",
          "name": "from",
          "type": "address"
        },
        {
          "internalType": "address",
          "name": "to",
          "type": "address"
        },
        {
          "internalType": "uint256",
          "name": "tokenId",
          "type": "uint256"
        },
        {
          "internalType": "bytes",
          "name": "data",
          "type": "bytes"
        }
      ],
      "name": "safeTransferFrom",
      "outputs": [],
      "stateMutability": "nonpayable",
      "type": "function"
    },
    {
      "inputs": [
        {
          "internalType": "address",
          "name": "operator",
          "type": "address"
        },
        {
          "internalType": "bool",
          "name": "approved",
          "type": "bool"
        }
      ],
      "name": "setApprovalForAll",
      "outputs": [],
      "stateMutability": "nonpayable",
      "type": "function"
    },
    {
      "inputs": [
        {
          "internalType": "bytes4",
          "name": "interfaceId",
          "type": "bytes4"
        }
      ],
      "name": "supportsInterface",
      "outputs": [
        {
          "internalType": "bool",
          "name": "",
          "type": "bool"
        }
      ],
      "stateMutability": "view",
      "type": "function",
      "constant": true
    },
    {
      "inputs": [],
      "name": "symbol",
      "outputs": [
        {
          "internalType": "string",
          "name": "",
          "type": "string"
        }
      ],
      "stateMutability": "view",
      "type": "function",
      "constant": true
    },
    {
      "inputs": [
        {
          "internalType": "address",
          "name": "from",
          "type": "address"
        },
        {
          "internalType": "address",
          "name": "to",
          "type": "address"
        },
        {
          "internalType": "uint256",
          "name": "tokenId",
          "type": "uint256"
        }
      ],
      "name": "transferFrom",
      "outputs": [],
      "stateMutability": "nonpayable",
      "type": "function"
    },
    {
      "inputs": [
        {
          "internalType": "address",
          "name": "player",
          "type": "address"
        }
      ],
      "name": "hasMinted",
      "outputs": [
        {
          "internalType": "bool",
          "name": "",
          "type": "bool"
        }
      ],
      "stateMutability": "view",
      "type": "function",
      "constant": true
    },
    {
      "inputs": [
        {
          "internalType": "address",
          "name": "player",
          "type": "address"
        }
      ],
      "name": "playerToTokenId",
      "outputs": [
        {
          "internalType": "uint256",
          "name": "",
          "type": "uint256"
        }
      ],
      "stateMutability": "view",
      "type": "function",
      "constant": true
    },
    {
      "inputs": [],
      "name": "safeMint",
      "outputs": [],
      "stateMutability": "nonpayable",
      "type": "function"
    },
    {
      "inputs": [
        {
          "internalType": "uint256",
          "name": "tokenId",
          "type": "uint256"
        }
      ],
      "name": "tokenURI",
      "outputs": [
        {
          "internalType": "string",
          "name": "",
          "type": "string"
        }
      ],
      "stateMutability": "view",
      "type": "function",
      "constant": true
    }
  ],
  "bytecode": "0x60806040523480156200001157600080fd5b506040518060400160405280600981526020017f416476656e7475726500000000000000000000000000000000000000000000008152506040518060400160405280600181526020017f410000000000000000000000000000000000000000000000000000000000000081525081600090816200008f91906200036b565b508060019081620000a191906200036b565b5050506040518060400160405280601f81526020017f687474703a2f2f6c6f63616c686f73743a333030302f6d657461646174612f0081525060079081620000ea91906200036b565b5062000452565b600081519050919050565b7f4e487b7100000000000000000000000000000000000000000000000000000000600052604160045260246000fd5b7f4e487b7100000000000000000000000000000000000000000000000000000000600052602260045260246000fd5b600060028204905060018216806200017357607f821691505b6020821081036200018957620001886200012b565b5b50919050565b60008190508160005260206000209050919050565b60006020601f8301049050919050565b600082821b905092915050565b600060088302620001f37fffffffffffffffffffffffffffffffffffffffffffffffffffffffffffffffff82620001b4565b620001ff8683620001b4565b95508019841693508086168417925050509392505050565b6000819050919050565b6000819050919050565b60006200024c62000246620002408462000217565b62000221565b62000217565b9050919050565b6000819050919050565b62000268836200022b565b62000280620002778262000253565b848454620001c1565b825550505050565b600090565b6200029762000288565b620002a48184846200025d565b505050565b5b81811015620002cc57620002c06000826200028d565b600181019050620002aa565b5050565b601f8211156200031b57620002e5816200018f565b620002f084620001a4565b8101602085101562000300578190505b620003186200030f85620001a4565b830182620002a9565b50505b505050565b600082821c905092915050565b6000620003406000198460080262000320565b1980831691505092915050565b60006200035b83836200032d565b9150826002028217905092915050565b6200037682620000f1565b67ffffffffffffffff811115620003925762000391620000fc565b5b6200039e82546200015a565b620003ab828285620002d0565b600060209050601f831160018114620003e35760008415620003ce578287015190505b620003da85826200034d565b8655506200044a565b601f198416620003f3866200018f565b60005b828110156200041d57848901518255600182019150602085019450602081019050620003f6565b868310156200043d578489015162000439601f8916826200032d565b8355505b6001600288020188555050505b505050505050565b6129e380620004626000396000f3fe608060405234801561001057600080fd5b506004361061010b5760003560e01c80636352211e116100a2578063a22cb46511610071578063a22cb465146102ca578063b88d4fde146102e6578063c87b56dd14610302578063d547cfb714610332578063e985e9c5146103505761010b565b80636352211e146102425780636871ee401461027257806370a082311461027c57806395d89b41146102ac5761010b565b806323b872dd116100de57806323b872dd146101aa57806338e21cce146101c65780633c0686e5146101f657806342842e0e146102265761010b565b806301ffc9a71461011057806306fdde0314610140578063081812fc1461015e578063095ea7b31461018e575b600080fd5b61012a60048036038101906101259190611af8565b610380565b6040516101379190611b40565b60405180910390f35b610148610462565b6040516101559190611beb565b60405180910390f35b61017860048036038101906101739190611c43565b6104f4565b6040516101859190611cb1565b60405180910390f35b6101a860048036038101906101a39190611cf8565b61053a565b005b6101c460048036038101906101bf9190611d38565b610651565b005b6101e060048036038101906101db9190611d8b565b6106b1565b6040516101ed9190611b40565b60405180910390f35b610210600480360381019061020b9190611d8b565b610707565b60405161021d9190611dc7565b60405180910390f35b610240600480360381019061023b9190611d38565b610750565b005b61025c60048036038101906102579190611c43565b610770565b6040516102699190611cb1565b60405180910390f35b61027a6107f6565b005b61029660048036038101906102919190611d8b565b610947565b6040516102a39190611dc7565b60405180910390f35b6102b46109fe565b6040516102c19190611beb565b60405180910390f35b6102e460048036038101906102df9190611e0e565b610a90565b005b61030060048036038101906102fb9190611f83565b610aa6565b005b61031c60048036038101906103179190611c43565b610b08565b6040516103299190611beb565b60405180910390f35b61033a610bb3565b6040516103479190611beb565b60405180910390f35b61036a60048036038101906103659190612006565b610c41565b6040516103779190611b40565b60405180910390f35b60007f80ac58cd000000000000000000000000000000000000000000000000000000007bffffffffffffffffffffffffffffffffffffffffffffffffffffffff1916827bffffffffffffffffffffffffffffffffffffffffffffffffffffffff1916148061044b57507f5b5e139f000000000000000000000000000000000000000000000000000000007bffffffffffffffffffffffffffffffffffffffffffffffffffffffff1916827bffffffffffffffffffffffffffffffffffffffffffffffffffffffff1916145b8061045b575061045a82610cd5565b5b9050919050565b60606000805461047190612075565b80601f016020809104026020016040519081016040528092919081815260200182805461049d90612075565b80156104ea5780601f106104bf576101008083540402835291602001916104ea565b820191906000526020600020905b8154815290600101906020018083116104cd57829003601f168201915b5050505050905090565b60006104ff82610d3f565b6004600083815260200190815260200160002060009054906101000a900473ffffffffffffffffffffffffffffffffffffffff169050919050565b600061054582610770565b90508073ffffffffffffffffffffffffffffffffffffffff168373ffffffffffffffffffffffffffffffffffffffff16036105b5576040517f08c379a00000000000000000000000000000000000000000000000000000000081526004016105ac90612118565b60405180910390fd5b8073ffffffffffffffffffffffffffffffffffffffff166105d4610d8a565b73ffffffffffffffffffffffffffffffffffffffff1614806106035750610602816105fd610d8a565b610c41565b5b610642576040517f08c379a0000000000000000000000000000000000000000000000000000000008152600401610639906121aa565b60405180910390fd5b61064c8383610d92565b505050565b61066261065c610d8a565b82610e4b565b6106a1576040517f08c379a00000000000000000000000000000000000000000000000000000000081526004016106989061223c565b60405180910390fd5b6106ac838383610ee0565b505050565b6000600860008373ffffffffffffffffffffffffffffffffffffffff1673ffffffffffffffffffffffffffffffffffffffff16815260200190815260200160002060009054906101000a900460ff169050919050565b6000600960008373ffffffffffffffffffffffffffffffffffffffff1673ffffffffffffffffffffffffffffffffffffffff168152602001908152602001600020549050919050565b61076b83838360405180602001604052806000815250610aa6565b505050565b60008061077c836111d9565b9050600073ffffffffffffffffffffffffffffffffffffffff168173ffffffffffffffffffffffffffffffffffffffff16036107ed576040517f08c379a00000000000000000000000000000000000000000000000000000000081526004016107e4906122a8565b60405180910390fd5b80915050919050565b600860003373ffffffffffffffffffffffffffffffffffffffff1673ffffffffffffffffffffffffffffffffffffffff16815260200190815260200160002060009054906101000a900460ff1615610883576040517f08c379a000000000000000000000000000000000000000000000000000000000815260040161087a90612314565b60405180910390fd5b6006600081548092919061089690612363565b91905055506108a733600654611216565b6001600860003373ffffffffffffffffffffffffffffffffffffffff1673ffffffffffffffffffffffffffffffffffffffff16815260200190815260200160002060006101000a81548160ff021916908315150217905550600654600960003373ffffffffffffffffffffffffffffffffffffffff1673ffffffffffffffffffffffffffffffffffffffff16815260200190815260200160002081905550565b60008073ffffffffffffffffffffffffffffffffffffffff168273ffffffffffffffffffffffffffffffffffffffff16036109b7576040517f08c379a00000000000000000000000000000000000000000000000000000000081526004016109ae9061241d565b60405180910390fd5b600360008373ffffffffffffffffffffffffffffffffffffffff1673ffffffffffffffffffffffffffffffffffffffff168152602001908152602001600020549050919050565b606060018054610a0d90612075565b80601f0160208091040260200160405190810160405280929190818152602001828054610a3990612075565b8015610a865780601f10610a5b57610100808354040283529160200191610a86565b820191906000526020600020905b815481529060010190602001808311610a6957829003601f168201915b5050505050905090565b610aa2610a9b610d8a565b8383611234565b5050565b610ab7610ab1610d8a565b83610e4b565b610af6576040517f08c379a0000000000000000000000000000000000000000000000000000000008152600401610aed9061223c565b60405180910390fd5b610b02848484846113a0565b50505050565b6060600073ffffffffffffffffffffffffffffffffffffffff16610b2b83610770565b73ffffffffffffffffffffffffffffffffffffffff1603610b81576040517f08c379a0000000000000000000000000000000000000000000000000000000008152600401610b7890612489565b60405180910390fd5b6007610b8c836113fc565b604051602001610b9d92919061257d565b6040516020818303038152906040529050919050565b60078054610bc090612075565b80601f0160208091040260200160405190810160405280929190818152602001828054610bec90612075565b8015610c395780601f10610c0e57610100808354040283529160200191610c39565b820191906000526020600020905b815481529060010190602001808311610c1c57829003601f168201915b505050505081565b6000600560008473ffffffffffffffffffffffffffffffffffffffff1673ffffffffffffffffffffffffffffffffffffffff16815260200190815260200160002060008373ffffffffffffffffffffffffffffffffffffffff1673ffffffffffffffffffffffffffffffffffffffff16815260200190815260200160002060009054906101000a900460ff16905092915050565b60007f01ffc9a7000000000000000000000000000000000000000000000000000000007bffffffffffffffffffffffffffffffffffffffffffffffffffffffff1916827bffffffffffffffffffffffffffffffffffffffffffffffffffffffff1916149050919050565b610d48816114ca565b610d87576040517f08c379a0000000000000000000000000000000000000000000000000000000008152600401610d7e906122a8565b60405180910390fd5b50565b600033905090565b816004600083815260200190815260200160002060006101000a81548173ffffffffffffffffffffffffffffffffffffffff021916908373ffffffffffffffffffffffffffffffffffffffff160217905550808273ffffffffffffffffffffffffffffffffffffffff16610e0583610770565b73ffffffffffffffffffffffffffffffffffffffff167f8c5be1e5ebec7d5bd14f71427d1e84f3dd0314c0f7b2291e5b200ac8c7c3b92560405160405180910390a45050565b600080610e5783610770565b90508073ffffffffffffffffffffffffffffffffffffffff168473ffffffffffffffffffffffffffffffffffffffff161480610e995750610e988185610c41565b5b80610ed757508373ffffffffffffffffffffffffffffffffffffffff16610ebf846104f4565b73ffffffffffffffffffffffffffffffffffffffff16145b91505092915050565b8273ffffffffffffffffffffffffffffffffffffffff16610f0082610770565b73ffffffffffffffffffffffffffffffffffffffff1614610f56576040517f08c379a0000000000000000000000000000000000000000000000000000000008152600401610f4d90612613565b60405180910390fd5b600073ffffffffffffffffffffffffffffffffffffffff168273ffffffffffffffffffffffffffffffffffffffff1603610fc5576040517f08c379a0000000000000000000000000000000000000000000000000000000008152600401610fbc906126a5565b60405180910390fd5b610fd2838383600161150b565b8273ffffffffffffffffffffffffffffffffffffffff16610ff282610770565b73ffffffffffffffffffffffffffffffffffffffff1614611048576040517f08c379a000000000000000000000000000000000000000000000000000000000815260040161103f90612613565b60405180910390fd5b6004600082815260200190815260200160002060006101000a81549073ffffffffffffffffffffffffffffffffffffffff02191690556001600360008573ffffffffffffffffffffffffffffffffffffffff1673ffffffffffffffffffffffffffffffffffffffff168152602001908152602001600020600082825403925050819055506001600360008473ffffffffffffffffffffffffffffffffffffffff1673ffffffffffffffffffffffffffffffffffffffff16815260200190815260200160002060008282540192505081905550816002600083815260200190815260200160002060006101000a81548173ffffffffffffffffffffffffffffffffffffffff021916908373ffffffffffffffffffffffffffffffffffffffff160217905550808273ffffffffffffffffffffffffffffffffffffffff168473ffffffffffffffffffffffffffffffffffffffff167fddf252ad1be2c89b69c2b068fc378daa952ba7f163c4a11628f55a4df523b3ef60405160405180910390a46111d48383836001611511565b505050565b60006002600083815260200190815260200160002060009054906101000a900473ffffffffffffffffffffffffffffffffffffffff169050919050565b611230828260405180602001604052806000815250611517565b5050565b8173ffffffffffffffffffffffffffffffffffffffff168373ffffffffffffffffffffffffffffffffffffffff16036112a2576040517f08c379a000000000000000000000000000000000000000000000000000000000815260040161129990612711565b60405180910390fd5b80600560008573ffffffffffffffffffffffffffffffffffffffff1673ffffffffffffffffffffffffffffffffffffffff16815260200190815260200160002060008473ffffffffffffffffffffffffffffffffffffffff1673ffffffffffffffffffffffffffffffffffffffff16815260200190815260200160002060006101000a81548160ff0219169083151502179055508173ffffffffffffffffffffffffffffffffffffffff168373ffffffffffffffffffffffffffffffffffffffff167f17307eab39ab6107e8899845ad3d59bd9653f200f220920489ca2b5937696c31836040516113939190611b40565b60405180910390a3505050565b6113ab848484610ee0565b6113b784848484611572565b6113f6576040517f08c379a00000000000000000000000000000000000000000000000000000000081526004016113ed906127a3565b60405180910390fd5b50505050565b60606000600161140b846116f9565b01905060008167ffffffffffffffff81111561142a57611429611e58565b5b6040519080825280601f01601f19166020018201604052801561145c5781602001600182028036833780820191505090505b509050600082602001820190505b6001156114bf578080600190039150507f3031323334353637383961626364656600000000000000000000000000000000600a86061a8153600a85816114b3576114b26127c3565b5b0494506000850361146a575b819350505050919050565b60008073ffffffffffffffffffffffffffffffffffffffff166114ec836111d9565b73ffffffffffffffffffffffffffffffffffffffff1614159050919050565b50505050565b50505050565b611521838361184c565b61152e6000848484611572565b61156d576040517f08c379a0000000000000000000000000000000000000000000000000000000008152600401611564906127a3565b60405180910390fd5b505050565b60006115938473ffffffffffffffffffffffffffffffffffffffff16611a69565b156116ec578373ffffffffffffffffffffffffffffffffffffffff1663150b7a026115bc610d8a565b8786866040518563ffffffff1660e01b81526004016115de9493929190612847565b6020604051808303816000875af192505050801561161a57506040513d601f19601f8201168201806040525081019061161791906128a8565b60015b61169c573d806000811461164a576040519150601f19603f3d011682016040523d82523d6000602084013e61164f565b606091505b506000815103611694576040517f08c379a000000000000000000000000000000000000000000000000000000000815260040161168b906127a3565b60405180910390fd5b805181602001fd5b63150b7a0260e01b7bffffffffffffffffffffffffffffffffffffffffffffffffffffffff1916817bffffffffffffffffffffffffffffffffffffffffffffffffffffffff1916149150506116f1565b600190505b949350505050565b600080600090507a184f03e93ff9f4daa797ed6e38ed64bf6a1f0100000000000000008310611757577a184f03e93ff9f4daa797ed6e38ed64bf6a1f010000000000000000838161174d5761174c6127c3565b5b0492506040810190505b6d04ee2d6d415b85acef81000000008310611794576d04ee2d6d415b85acef8100000000838161178a576117896127c3565b5b0492506020810190505b662386f26fc1000083106117c357662386f26fc1000083816117b9576117b86127c3565b5b0492506010810190505b6305f5e10083106117ec576305f5e10083816117e2576117e16127c3565b5b0492506008810190505b6127108310611811576127108381611807576118066127c3565b5b0492506004810190505b60648310611834576064838161182a576118296127c3565b5b0492506002810190505b600a8310611843576001810190505b80915050919050565b600073ffffffffffffffffffffffffffffffffffffffff168273ffffffffffffffffffffffffffffffffffffffff16036118bb576040517f08c379a00000000000000000000000000000000000000000000000000000000081526004016118b290612921565b60405180910390fd5b6118c4816114ca565b15611904576040517f08c379a00000000000000000000000000000000000000000000000000000000081526004016118fb9061298d565b60405180910390fd5b61191260008383600161150b565b61191b816114ca565b1561195b576040517f08c379a00000000000000000000000000000000000000000000000000000000081526004016119529061298d565b60405180910390fd5b6001600360008473ffffffffffffffffffffffffffffffffffffffff1673ffffffffffffffffffffffffffffffffffffffff16815260200190815260200160002060008282540192505081905550816002600083815260200190815260200160002060006101000a81548173ffffffffffffffffffffffffffffffffffffffff021916908373ffffffffffffffffffffffffffffffffffffffff160217905550808273ffffffffffffffffffffffffffffffffffffffff16600073ffffffffffffffffffffffffffffffffffffffff167fddf252ad1be2c89b69c2b068fc378daa952ba7f163c4a11628f55a4df523b3ef60405160405180910390a4611a65600083836001611511565b5050565b6000808273ffffffffffffffffffffffffffffffffffffffff163b119050919050565b6000604051905090565b600080fd5b600080fd5b60007fffffffff0000000000000000000000000000000000000000000000000000000082169050919050565b611ad581611aa0565b8114611ae057600080fd5b50565b600081359050611af281611acc565b92915050565b600060208284031215611b0e57611b0d611a96565b5b6000611b1c84828501611ae3565b91505092915050565b60008115159050919050565b611b3a81611b25565b82525050565b6000602082019050611b556000830184611b31565b92915050565b600081519050919050565b600082825260208201905092915050565b60005b83811015611b95578082015181840152602081019050611b7a565b60008484015250505050565b6000601f19601f8301169050919050565b6000611bbd82611b5b565b611bc78185611b66565b9350611bd7818560208601611b77565b611be081611ba1565b840191505092915050565b60006020820190508181036000830152611c058184611bb2565b905092915050565b6000819050919050565b611c2081611c0d565b8114611c2b57600080fd5b50565b600081359050611c3d81611c17565b92915050565b600060208284031215611c5957611c58611a96565b5b6000611c6784828501611c2e565b91505092915050565b600073ffffffffffffffffffffffffffffffffffffffff82169050919050565b6000611c9b82611c70565b9050919050565b611cab81611c90565b82525050565b6000602082019050611cc66000830184611ca2565b92915050565b611cd581611c90565b8114611ce057600080fd5b50565b600081359050611cf281611ccc565b92915050565b60008060408385031215611d0f57611d0e611a96565b5b6000611d1d85828601611ce3565b9250506020611d2e85828601611c2e565b9150509250929050565b600080600060608486031215611d5157611d50611a96565b5b6000611d5f86828701611ce3565b9350506020611d7086828701611ce3565b9250506040611d8186828701611c2e565b9150509250925092565b600060208284031215611da157611da0611a96565b5b6000611daf84828501611ce3565b91505092915050565b611dc181611c0d565b82525050565b6000602082019050611ddc6000830184611db8565b92915050565b611deb81611b25565b8114611df657600080fd5b50565b600081359050611e0881611de2565b92915050565b60008060408385031215611e2557611e24611a96565b5b6000611e3385828601611ce3565b9250506020611e4485828601611df9565b9150509250929050565b600080fd5b600080fd5b7f4e487b7100000000000000000000000000000000000000000000000000000000600052604160045260246000fd5b611e9082611ba1565b810181811067ffffffffffffffff82111715611eaf57611eae611e58565b5b80604052505050565b6000611ec2611a8c565b9050611ece8282611e87565b919050565b600067ffffffffffffffff821115611eee57611eed611e58565b5b611ef782611ba1565b9050602081019050919050565b82818337600083830152505050565b6000611f26611f2184611ed3565b611eb8565b905082815260208101848484011115611f4257611f41611e53565b5b611f4d848285611f04565b509392505050565b600082601f830112611f6a57611f69611e4e565b5b8135611f7a848260208601611f13565b91505092915050565b60008060008060808587031215611f9d57611f9c611a96565b5b6000611fab87828801611ce3565b9450506020611fbc87828801611ce3565b9350506040611fcd87828801611c2e565b925050606085013567ffffffffffffffff811115611fee57611fed611a9b565b5b611ffa87828801611f55565b91505092959194509250565b6000806040838503121561201d5761201c611a96565b5b600061202b85828601611ce3565b925050602061203c85828601611ce3565b9150509250929050565b7f4e487b7100000000000000000000000000000000000000000000000000000000600052602260045260246000fd5b6000600282049050600182168061208d57607f821691505b6020821081036120a05761209f612046565b5b50919050565b7f4552433732313a20617070726f76616c20746f2063757272656e74206f776e6560008201527f7200000000000000000000000000000000000000000000000000000000000000602082015250565b6000612102602183611b66565b915061210d826120a6565b604082019050919050565b60006020820190508181036000830152612131816120f5565b9050919050565b7f4552433732313a20617070726f76652063616c6c6572206973206e6f7420746f60008201527f6b656e206f776e6572206f7220617070726f76656420666f7220616c6c000000602082015250565b6000612194603d83611b66565b915061219f82612138565b604082019050919050565b600060208201905081810360008301526121c381612187565b9050919050565b7f4552433732313a2063616c6c6572206973206e6f7420746f6b656e206f776e6560008201527f72206f7220617070726f76656400000000000000000000000000000000000000602082015250565b6000612226602d83611b66565b9150612231826121ca565b604082019050919050565b6000602082019050818103600083015261225581612219565b9050919050565b7f4552433732313a20696e76616c696420746f6b656e2049440000000000000000600082015250565b6000612292601883611b66565b915061229d8261225c565b602082019050919050565b600060208201905081810360008301526122c181612285565b9050919050565b7f596f75206861766520616c7265616479206d696e74656420616e204e46540000600082015250565b60006122fe601e83611b66565b9150612309826122c8565b602082019050919050565b6000602082019050818103600083015261232d816122f1565b9050919050565b7f4e487b7100000000000000000000000000000000000000000000000000000000600052601160045260246000fd5b600061236e82611c0d565b91507fffffffffffffffffffffffffffffffffffffffffffffffffffffffffffffffff82036123a05761239f612334565b5b600182019050919050565b7f4552433732313a2061646472657373207a65726f206973206e6f74206120766160008201527f6c6964206f776e65720000000000000000000000000000000000000000000000602082015250565b6000612407602983611b66565b9150612412826123ab565b604082019050919050565b60006020820190508181036000830152612436816123fa565b9050919050565b7f546f6b656e20646f6573206e6f74206578697374000000000000000000000000600082015250565b6000612473601483611b66565b915061247e8261243d565b602082019050919050565b600060208201905081810360008301526124a281612466565b9050919050565b600081905092915050565b60008190508160005260206000209050919050565b600081546124d681612075565b6124e081866124a9565b945060018216600081146124fb576001811461251057612543565b60ff1983168652811515820286019350612543565b612519856124b4565b60005b8381101561253b5781548189015260018201915060208101905061251c565b838801955050505b50505092915050565b600061255782611b5b565b61256181856124a9565b9350612571818560208601611b77565b80840191505092915050565b600061258982856124c9565b9150612595828461254c565b91508190509392505050565b7f4552433732313a207472616e736665722066726f6d20696e636f72726563742060008201527f6f776e6572000000000000000000000000000000000000000000000000000000602082015250565b60006125fd602583611b66565b9150612608826125a1565b604082019050919050565b6000602082019050818103600083015261262c816125f0565b9050919050565b7f4552433732313a207472616e7366657220746f20746865207a65726f2061646460008201527f7265737300000000000000000000000000000000000000000000000000000000602082015250565b600061268f602483611b66565b915061269a82612633565b604082019050919050565b600060208201905081810360008301526126be81612682565b9050919050565b7f4552433732313a20617070726f766520746f2063616c6c657200000000000000600082015250565b60006126fb601983611b66565b9150612706826126c5565b602082019050919050565b6000602082019050818103600083015261272a816126ee565b9050919050565b7f4552433732313a207472616e7366657220746f206e6f6e20455243373231526560008201527f63656976657220696d706c656d656e7465720000000000000000000000000000602082015250565b600061278d603283611b66565b915061279882612731565b604082019050919050565b600060208201905081810360008301526127bc81612780565b9050919050565b7f4e487b7100000000000000000000000000000000000000000000000000000000600052601260045260246000fd5b600081519050919050565b600082825260208201905092915050565b6000612819826127f2565b61282381856127fd565b9350612833818560208601611b77565b61283c81611ba1565b840191505092915050565b600060808201905061285c6000830187611ca2565b6128696020830186611ca2565b6128766040830185611db8565b8181036060830152612888818461280e565b905095945050505050565b6000815190506128a281611acc565b92915050565b6000602082840312156128be576128bd611a96565b5b60006128cc84828501612893565b91505092915050565b7f4552433732313a206d696e7420746f20746865207a65726f2061646472657373600082015250565b600061290b602083611b66565b9150612916826128d5565b602082019050919050565b6000602082019050818103600083015261293a816128fe565b9050919050565b7f4552433732313a20746f6b656e20616c7265616479206d696e74656400000000600082015250565b6000612977601c83611b66565b915061298282612941565b602082019050919050565b600060208201905081810360008301526129a68161296a565b905091905056fea2646970667358221220bd40eac5c4340fec4801911db4aea7991c837ba6394845780f603ebce94e8e1964736f6c63430008110033",
  "immutableReferences": {},
  "source": "// SPDX-License-Identifier: GPL-3.0\r\npragma solidity ^0.8.0;\r\n\r\nimport \"@openzeppelin/contracts/token/ERC721/ERC721.sol\";\r\nimport \"@openzeppelin/contracts/access/Ownable.sol\";\r\nimport \"@openzeppelin/contracts/utils/Strings.sol\";\r\n\r\ncontract AdventureNFT is ERC721 {\r\n    using Strings for uint256;\r\n\r\n    uint256 private nextTokenId;\r\n    string public baseTokenURI;\r\n\r\n    function hasMinted(address player) public view returns (bool) {\r\n    return _hasMinted[player];\r\n    }\r\n\r\n    function playerToTokenId(address player) public view returns (uint256) {\r\n        return _playerToTokenId[player];\r\n    }\r\n\r\n    mapping(address => bool) private _hasMinted;\r\n    mapping(address => uint256) private _playerToTokenId;\r\n\r\n\r\n    constructor() ERC721(\"Adventure\", \"A\") {\r\n        baseTokenURI = \"http://localhost:3000/metadata/\";\r\n    }\r\n\r\n    function safeMint() public {\r\n        require(!_hasMinted[msg.sender], \"You have already minted an NFT\");\r\n        nextTokenId++;\r\n        _safeMint(msg.sender, nextTokenId);\r\n        _hasMinted[msg.sender] = true;\r\n        _playerToTokenId[msg.sender] = nextTokenId;\r\n    }\r\n\r\n    function tokenURI(uint256 tokenId) public view override returns (string memory) {\r\n        require(ownerOf(tokenId) != address(0), \"Token does not exist\");\r\n        return string(abi.encodePacked(baseTokenURI, tokenId.toString()));\r\n    }\r\n}",
  "sourcePath": "C:\\Users\\franc\\OneDrive\\PERSONAL\\CODE\\ChainQuest\\contracts\\contracts\\AdventureNFT.sol",
  "compiler": {
    "name": "solc",
    "version": "0.8.17+commit.8df45f5f.Emscripten.clang"
  },
  "schemaVersion": "3.4.16",
  "updatedAt": "2025-09-19T09:18:18.990Z",
  "networkType": "ethereum",
  "devdoc": {
    "kind": "dev",
    "methods": {
      "approve(address,uint256)": {
        "details": "See {IERC721-approve}."
      },
      "balanceOf(address)": {
        "details": "See {IERC721-balanceOf}."
      },
      "getApproved(uint256)": {
        "details": "See {IERC721-getApproved}."
      },
      "isApprovedForAll(address,address)": {
        "details": "See {IERC721-isApprovedForAll}."
      },
      "name()": {
        "details": "See {IERC721Metadata-name}."
      },
      "ownerOf(uint256)": {
        "details": "See {IERC721-ownerOf}."
      },
      "safeTransferFrom(address,address,uint256)": {
        "details": "See {IERC721-safeTransferFrom}."
      },
      "safeTransferFrom(address,address,uint256,bytes)": {
        "details": "See {IERC721-safeTransferFrom}."
      },
      "setApprovalForAll(address,bool)": {
        "details": "See {IERC721-setApprovalForAll}."
      },
      "supportsInterface(bytes4)": {
        "details": "See {IERC165-supportsInterface}."
      },
      "symbol()": {
        "details": "See {IERC721Metadata-symbol}."
      },
      "tokenURI(uint256)": {
        "details": "See {IERC721Metadata-tokenURI}."
      },
      "transferFrom(address,address,uint256)": {
        "details": "See {IERC721-transferFrom}."
      }
    },
    "version": 1
  },
  "userdoc": {
    "kind": "user",
    "methods": {},
    "version": 1
  }
}