{
  "contractName": "QuestManager",
  "abi": [
    {
      "inputs": [],
      "stateMutability": "nonpayable",
      "type": "constructor"
    },
    {
      "anonymous": false,
      "inputs": [
        {
          "indexed": false,
          "internalType": "uint256",
          "name": "id",
          "type": "uint256"
        },
        {
          "indexed": false,
          "internalType": "string",
          "name": "description",
          "type": "string"
        },
        {
          "indexed": false,
          "internalType": "uint256",
          "name": "xpReward",
          "type": "uint256"
        }
      ],
      "name": "QuestAdded",
      "type": "event"
    },
    {
      "anonymous": false,
      "inputs": [
        {
          "indexed": true,
          "internalType": "address",
          "name": "player",
          "type": "address"
        },
        {
          "indexed": false,
          "internalType": "uint256",
          "name": "questId",
          "type": "uint256"
        },
        {
          "indexed": false,
          "internalType": "uint256",
          "name": "xpReward",
          "type": "uint256"
        },
        {
          "indexed": false,
          "internalType": "uint256",
          "name": "timestamp",
          "type": "uint256"
        }
      ],
      "name": "QuestCompleted",
      "type": "event"
    },
    {
      "inputs": [
        {
          "internalType": "address",
          "name": "",
          "type": "address"
        },
        {
          "internalType": "uint256",
          "name": "",
          "type": "uint256"
        }
      ],
      "name": "completed",
      "outputs": [
        {
          "internalType": "bool",
          "name": "",
          "type": "bool"
        }
      ],
      "stateMutability": "view",
      "type": "function"
    },
    {
      "inputs": [
        {
          "internalType": "uint256",
          "name": "",
          "type": "uint256"
        }
      ],
      "name": "quests",
      "outputs": [
        {
          "internalType": "uint256",
          "name": "id",
          "type": "uint256"
        },
        {
          "internalType": "string",
          "name": "description",
          "type": "string"
        },
        {
          "internalType": "uint256",
          "name": "xpReward",
          "type": "uint256"
        },
        {
          "internalType": "bool",
          "name": "isActive",
          "type": "bool"
        }
      ],
      "stateMutability": "view",
      "type": "function"
    },
    {
      "inputs": [
        {
          "internalType": "string",
          "name": "_description",
          "type": "string"
        },
        {
          "internalType": "uint256",
          "name": "_xpReward",
          "type": "uint256"
        }
      ],
      "name": "addQuest",
      "outputs": [],
      "stateMutability": "nonpayable",
      "type": "function"
    },
    {
      "inputs": [
        {
          "internalType": "uint256",
          "name": "_id",
          "type": "uint256"
        }
      ],
      "name": "completeQuest",
      "outputs": [],
      "stateMutability": "nonpayable",
      "type": "function"
    },
    {
      "inputs": [],
      "name": "getQuests",
      "outputs": [
        {
          "components": [
            {
              "internalType": "uint256",
              "name": "id",
              "type": "uint256"
            },
            {
              "internalType": "string",
              "name": "description",
              "type": "string"
            },
            {
              "internalType": "uint256",
              "name": "xpReward",
              "type": "uint256"
            },
            {
              "internalType": "bool",
              "name": "isActive",
              "type": "bool"
            }
          ],
          "internalType": "struct QuestManager.Quest[]",
          "name": "",
          "type": "tuple[]"
        }
      ],
      "stateMutability": "view",
      "type": "function"
    },
    {
      "inputs": [
        {
          "internalType": "address",
          "name": "_owner",
          "type": "address"
        }
      ],
      "name": "isOwner",
      "outputs": [
        {
          "internalType": "bool",
          "name": "",
          "type": "bool"
        }
      ],
      "stateMutability": "view",
      "type": "function"
    }
  ],
  "bytecode": "0x608060405234801561001057600080fd5b50336000806101000a81548173ffffffffffffffffffffffffffffffffffffffff021916908373ffffffffffffffffffffffffffffffffffffffff1602179055506000600381905550611430806100686000396000f3fe608060405234801561001057600080fd5b50600436106100625760003560e01c80632f54bf6e14610067578063528be0a9146100975780637adcad8b146100b3578063a2935b07146100d1578063aa995c2c146100ed578063e085f9801461011d575b600080fd5b610081600480360381019061007c919061088e565b610150565b60405161008e91906108d6565b60405180910390f35b6100b160048036038101906100ac9190610927565b6101a8565b005b6100bb6103c9565b6040516100c89190610b27565b60405180910390f35b6100eb60048036038101906100e69190610c7e565b61054a565b005b61010760048036038101906101029190610cda565b6106fe565b60405161011491906108d6565b60405180910390f35b61013760048036038101906101329190610927565b61072d565b6040516101479493929190610d73565b60405180910390f35b60008173ffffffffffffffffffffffffffffffffffffffff1660008054906101000a900473ffffffffffffffffffffffffffffffffffffffff1673ffffffffffffffffffffffffffffffffffffffff16149050919050565b600115156001600083815260200190815260200160002060030160009054906101000a900460ff16151514610212576040517f08c379a000000000000000000000000000000000000000000000000000000000815260040161020990610e0b565b60405180910390fd5b600354811115610257576040517f08c379a000000000000000000000000000000000000000000000000000000000815260040161024e90610e77565b60405180910390fd5b600260003373ffffffffffffffffffffffffffffffffffffffff1673ffffffffffffffffffffffffffffffffffffffff168152602001908152602001600020600082815260200190815260200160002060009054906101000a900460ff16156102f5576040517f08c379a00000000000000000000000000000000000000000000000000000000081526004016102ec90610ee3565b60405180910390fd5b6001600260003373ffffffffffffffffffffffffffffffffffffffff1673ffffffffffffffffffffffffffffffffffffffff168152602001908152602001600020600083815260200190815260200160002060006101000a81548160ff0219169083151502179055503373ffffffffffffffffffffffffffffffffffffffff167f954c56630776f697dcdbcd8b735d0d97d82b2be631e6673fd56563a1559ede5d826001600085815260200190815260200160002060020154426040516103be93929190610f03565b60405180910390a250565b6060600060035467ffffffffffffffff8111156103e9576103e8610b53565b5b60405190808252806020026020018201604052801561042257816020015b61040f6107f2565b8152602001906001900390816104075790505b50905060005b60035481101561054257600160008281526020019081526020016000206040518060800160405290816000820154815260200160018201805461046a90610f69565b80601f016020809104026020016040519081016040528092919081815260200182805461049690610f69565b80156104e35780601f106104b8576101008083540402835291602001916104e3565b820191906000526020600020905b8154815290600101906020018083116104c657829003601f168201915b50505050508152602001600282015481526020016003820160009054906101000a900460ff16151515158152505082828151811061052457610523610f9a565b5b6020026020010181905250808061053a90610ff8565b915050610428565b508091505090565b60008054906101000a900473ffffffffffffffffffffffffffffffffffffffff1673ffffffffffffffffffffffffffffffffffffffff163373ffffffffffffffffffffffffffffffffffffffff16146105d8576040517f08c379a00000000000000000000000000000000000000000000000000000000081526004016105cf9061108c565b60405180910390fd5b6000811161061b576040517f08c379a00000000000000000000000000000000000000000000000000000000081526004016106129061111e565b60405180910390fd5b6003600081548092919061062e90610ff8565b9190505550600060035490506040518060800160405280828152602001848152602001838152602001600115158152506001600083815260200190815260200160002060008201518160000155602082015181600101908161069091906112ea565b506040820151816002015560608201518160030160006101000a81548160ff0219169083151502179055509050507f92c8fbb6f3887e1068fe663eb41f1eaa90bea0e5044f45ab464a23a934f2b88f8184846040516106f1939291906113bc565b60405180910390a1505050565b60026020528160005260406000206020528060005260406000206000915091509054906101000a900460ff1681565b600160205280600052604060002060009150905080600001549080600101805461075690610f69565b80601f016020809104026020016040519081016040528092919081815260200182805461078290610f69565b80156107cf5780601f106107a4576101008083540402835291602001916107cf565b820191906000526020600020905b8154815290600101906020018083116107b257829003601f168201915b5050505050908060020154908060030160009054906101000a900460ff16905084565b60405180608001604052806000815260200160608152602001600081526020016000151581525090565b6000604051905090565b600080fd5b600080fd5b600073ffffffffffffffffffffffffffffffffffffffff82169050919050565b600061085b82610830565b9050919050565b61086b81610850565b811461087657600080fd5b50565b60008135905061088881610862565b92915050565b6000602082840312156108a4576108a3610826565b5b60006108b284828501610879565b91505092915050565b60008115159050919050565b6108d0816108bb565b82525050565b60006020820190506108eb60008301846108c7565b92915050565b6000819050919050565b610904816108f1565b811461090f57600080fd5b50565b600081359050610921816108fb565b92915050565b60006020828403121561093d5761093c610826565b5b600061094b84828501610912565b91505092915050565b600081519050919050565b600082825260208201905092915050565b6000819050602082019050919050565b610989816108f1565b82525050565b600081519050919050565b600082825260208201905092915050565b60005b838110156109c95780820151818401526020810190506109ae565b60008484015250505050565b6000601f19601f8301169050919050565b60006109f18261098f565b6109fb818561099a565b9350610a0b8185602086016109ab565b610a14816109d5565b840191505092915050565b610a28816108bb565b82525050565b6000608083016000830151610a466000860182610980565b5060208301518482036020860152610a5e82826109e6565b9150506040830151610a736040860182610980565b506060830151610a866060860182610a1f565b508091505092915050565b6000610a9d8383610a2e565b905092915050565b6000602082019050919050565b6000610abd82610954565b610ac7818561095f565b935083602082028501610ad985610970565b8060005b85811015610b155784840389528151610af68582610a91565b9450610b0183610aa5565b925060208a01995050600181019050610add565b50829750879550505050505092915050565b60006020820190508181036000830152610b418184610ab2565b905092915050565b600080fd5b600080fd5b7f4e487b7100000000000000000000000000000000000000000000000000000000600052604160045260246000fd5b610b8b826109d5565b810181811067ffffffffffffffff82111715610baa57610ba9610b53565b5b80604052505050565b6000610bbd61081c565b9050610bc98282610b82565b919050565b600067ffffffffffffffff821115610be957610be8610b53565b5b610bf2826109d5565b9050602081019050919050565b82818337600083830152505050565b6000610c21610c1c84610bce565b610bb3565b905082815260208101848484011115610c3d57610c3c610b4e565b5b610c48848285610bff565b509392505050565b600082601f830112610c6557610c64610b49565b5b8135610c75848260208601610c0e565b91505092915050565b60008060408385031215610c9557610c94610826565b5b600083013567ffffffffffffffff811115610cb357610cb261082b565b5b610cbf85828601610c50565b9250506020610cd085828601610912565b9150509250929050565b60008060408385031215610cf157610cf0610826565b5b6000610cff85828601610879565b9250506020610d1085828601610912565b9150509250929050565b610d23816108f1565b82525050565b600082825260208201905092915050565b6000610d458261098f565b610d4f8185610d29565b9350610d5f8185602086016109ab565b610d68816109d5565b840191505092915050565b6000608082019050610d886000830187610d1a565b8181036020830152610d9a8186610d3a565b9050610da96040830185610d1a565b610db660608301846108c7565b95945050505050565b7f5175657374206973206e6f742061637469766500000000000000000000000000600082015250565b6000610df5601383610d29565b9150610e0082610dbf565b602082019050919050565b60006020820190508181036000830152610e2481610de8565b9050919050565b7f496e76616c696420717565737420494400000000000000000000000000000000600082015250565b6000610e61601083610d29565b9150610e6c82610e2b565b602082019050919050565b60006020820190508181036000830152610e9081610e54565b9050919050565b7f596f7520616c726561647920636f6d706c657465642074686973207175657374600082015250565b6000610ecd602083610d29565b9150610ed882610e97565b602082019050919050565b60006020820190508181036000830152610efc81610ec0565b9050919050565b6000606082019050610f186000830186610d1a565b610f256020830185610d1a565b610f326040830184610d1a565b949350505050565b7f4e487b7100000000000000000000000000000000000000000000000000000000600052602260045260246000fd5b60006002820490506001821680610f8157607f821691505b602082108103610f9457610f93610f3a565b5b50919050565b7f4e487b7100000000000000000000000000000000000000000000000000000000600052603260045260246000fd5b7f4e487b7100000000000000000000000000000000000000000000000000000000600052601160045260246000fd5b6000611003826108f1565b91507fffffffffffffffffffffffffffffffffffffffffffffffffffffffffffffffff820361103557611034610fc9565b5b600182019050919050565b7f4f6e6c7920746865206f776e65722063616e2061646420717565737473000000600082015250565b6000611076601d83610d29565b915061108182611040565b602082019050919050565b600060208201905081810360008301526110a581611069565b9050919050565b7f585020726577617264206d757374206265206120706f736974697665206e756d60008201527f6265720000000000000000000000000000000000000000000000000000000000602082015250565b6000611108602383610d29565b9150611113826110ac565b604082019050919050565b60006020820190508181036000830152611137816110fb565b9050919050565b60008190508160005260206000209050919050565b60006020601f8301049050919050565b600082821b905092915050565b6000600883026111a07fffffffffffffffffffffffffffffffffffffffffffffffffffffffffffffffff82611163565b6111aa8683611163565b95508019841693508086168417925050509392505050565b6000819050919050565b60006111e76111e26111dd846108f1565b6111c2565b6108f1565b9050919050565b6000819050919050565b611201836111cc565b61121561120d826111ee565b848454611170565b825550505050565b600090565b61122a61121d565b6112358184846111f8565b505050565b5b818110156112595761124e600082611222565b60018101905061123b565b5050565b601f82111561129e5761126f8161113e565b61127884611153565b81016020851015611287578190505b61129b61129385611153565b83018261123a565b50505b505050565b600082821c905092915050565b60006112c1600019846008026112a3565b1980831691505092915050565b60006112da83836112b0565b9150826002028217905092915050565b6112f38261098f565b67ffffffffffffffff81111561130c5761130b610b53565b5b6113168254610f69565b61132182828561125d565b600060209050601f8311600181146113545760008415611342578287015190505b61134c85826112ce565b8655506113b4565b601f1984166113628661113e565b60005b8281101561138a57848901518255600182019150602085019450602081019050611365565b868310156113a757848901516113a3601f8916826112b0565b8355505b6001600288020188555050505b505050505050565b60006060820190506113d16000830186610d1a565b81810360208301526113e38185610d3a565b90506113f26040830184610d1a565b94935050505056fea26469706673582212207030c364721a38a57d5ee60099d0e2418de6271f709756f1a1fb34f4abb0ed4564736f6c63430008110033",
  "immutableReferences": {},
  "source": "// SPDX-License-Identifier: GPL-3.0\r\npragma solidity ^0.8.0;\r\n\r\ncontract QuestManager {\r\n    struct Quest {\r\n        uint id;\r\n        string description;\r\n        uint xpReward;\r\n        bool isActive;\r\n    }\r\n\r\n    address private owner;\r\n    mapping(uint => Quest) public quests;\r\n    mapping(address => mapping(uint => bool)) public completed;\r\n    uint private questCount;\r\n\r\n    event QuestAdded(uint id, string description, uint xpReward);\r\n    event QuestCompleted(address indexed player, uint questId, uint xpReward, uint timestamp);\r\n\r\n    constructor() {\r\n        owner = msg.sender;\r\n        questCount = 0;\r\n    }\r\n\r\n    function addQuest(string memory _description, uint _xpReward) public {\r\n        require(msg.sender == owner, \"Only the owner can add quests\");\r\n        require(_xpReward > 0, \"XP reward must be a positive number\");    \r\n\r\n        questCount++;\r\n        uint id = questCount;\r\n        quests[id] = Quest(id, _description, _xpReward, true);\r\n        emit QuestAdded(id, _description, _xpReward);\r\n    }\r\n\r\n    function completeQuest(uint _id) public {\r\n        require(quests[_id].isActive == true, \"Quest is not active\");\r\n        require(_id <= questCount, \"Invalid quest ID\");\r\n        require(!completed[msg.sender][_id], \"You already completed this quest\");\r\n\r\n        completed[msg.sender][_id] = true;\r\n\r\n        emit QuestCompleted(msg.sender, _id, quests[_id].xpReward, block.timestamp);\r\n    }\r\n    \r\n    function getQuests() public view returns (Quest[] memory) {\r\n        Quest[] memory questsList = new Quest[](questCount);\r\n        for (uint i = 0; i < questCount; i++) {\r\n            questsList[i] = quests[i];\r\n        }\r\n        return questsList;\r\n    }\r\n\r\n\r\n    function isOwner(address _owner) public view returns(bool){\r\n        return (owner == _owner);\r\n    }\r\n\r\n}\r\n",
  "sourcePath": "C:\\Users\\franc\\OneDrive\\PERSONAL\\CODE\\ChainQuest\\contracts\\contracts\\QuestManager.sol",
  "compiler": {
    "name": "solc",
    "version": "0.8.17+commit.8df45f5f.Emscripten.clang"
  },
  "schemaVersion": "3.4.16",
  "updatedAt": "2025-09-08T19:02:50.024Z",
  "devdoc": {
    "kind": "dev",
    "methods": {},
    "version": 1
  },
  "userdoc": {
    "kind": "user",
    "methods": {},
    "version": 1
  }
}