{
  "contractName": "QuestManager",
  "abi": [
    {
      "inputs": [],
      "stateMutability": "nonpayable",
      "type": "constructor"
    },
    {
      "anonymous": false,
      "inputs": [
        {
          "indexed": false,
          "internalType": "uint256",
          "name": "id",
          "type": "uint256"
        },
        {
          "indexed": false,
          "internalType": "string",
          "name": "description",
          "type": "string"
        },
        {
          "indexed": false,
          "internalType": "uint256",
          "name": "xpReward",
          "type": "uint256"
        }
      ],
      "name": "QuestAdded",
      "type": "event"
    },
    {
      "anonymous": false,
      "inputs": [
        {
          "indexed": true,
          "internalType": "address",
          "name": "player",
          "type": "address"
        },
        {
          "indexed": false,
          "internalType": "uint256",
          "name": "questId",
          "type": "uint256"
        },
        {
          "indexed": false,
          "internalType": "uint256",
          "name": "xpReward",
          "type": "uint256"
        },
        {
          "indexed": false,
          "internalType": "uint256",
          "name": "timestamp",
          "type": "uint256"
        }
      ],
      "name": "QuestCompleted",
      "type": "event"
    },
    {
      "inputs": [
        {
          "internalType": "address",
          "name": "",
          "type": "address"
        },
        {
          "internalType": "uint256",
          "name": "",
          "type": "uint256"
        }
      ],
      "name": "completed",
      "outputs": [
        {
          "internalType": "bool",
          "name": "",
          "type": "bool"
        }
      ],
      "stateMutability": "view",
      "type": "function",
      "constant": true
    },
    {
      "inputs": [
        {
          "internalType": "uint256",
          "name": "",
          "type": "uint256"
        }
      ],
      "name": "quests",
      "outputs": [
        {
          "internalType": "uint256",
          "name": "id",
          "type": "uint256"
        },
        {
          "internalType": "string",
          "name": "description",
          "type": "string"
        },
        {
          "internalType": "uint256",
          "name": "xpReward",
          "type": "uint256"
        },
        {
          "internalType": "bool",
          "name": "isActive",
          "type": "bool"
        }
      ],
      "stateMutability": "view",
      "type": "function",
      "constant": true
    },
    {
      "inputs": [
        {
          "internalType": "string",
          "name": "_description",
          "type": "string"
        },
        {
          "internalType": "uint256",
          "name": "_xpReward",
          "type": "uint256"
        }
      ],
      "name": "addQuest",
      "outputs": [],
      "stateMutability": "nonpayable",
      "type": "function"
    },
    {
      "inputs": [
        {
          "internalType": "uint256",
          "name": "_id",
          "type": "uint256"
        }
      ],
      "name": "completeQuest",
      "outputs": [],
      "stateMutability": "nonpayable",
      "type": "function"
    }
  ],
  "bytecode": "0x608060405234801561001057600080fd5b50336000806101000a81548173ffffffffffffffffffffffffffffffffffffffff021916908373ffffffffffffffffffffffffffffffffffffffff1602179055506000600381905550610fbe806100686000396000f3fe608060405234801561001057600080fd5b506004361061004c5760003560e01c8063528be0a914610051578063a2935b071461006d578063aa995c2c14610089578063e085f980146100b9575b600080fd5b61006b600480360381019061006691906105ff565b6100ec565b005b61008760048036038101906100829190610772565b61030d565b005b6100a3600480360381019061009e919061082c565b6104c1565b6040516100b09190610887565b60405180910390f35b6100d360048036038101906100ce91906105ff565b6104f0565b6040516100e39493929190610930565b60405180910390f35b600115156001600083815260200190815260200160002060030160009054906101000a900460ff16151514610156576040517f08c379a000000000000000000000000000000000000000000000000000000000815260040161014d906109c8565b60405180910390fd5b60035481111561019b576040517f08c379a000000000000000000000000000000000000000000000000000000000815260040161019290610a34565b60405180910390fd5b600260003373ffffffffffffffffffffffffffffffffffffffff1673ffffffffffffffffffffffffffffffffffffffff168152602001908152602001600020600082815260200190815260200160002060009054906101000a900460ff1615610239576040517f08c379a000000000000000000000000000000000000000000000000000000000815260040161023090610aa0565b60405180910390fd5b6001600260003373ffffffffffffffffffffffffffffffffffffffff1673ffffffffffffffffffffffffffffffffffffffff168152602001908152602001600020600083815260200190815260200160002060006101000a81548160ff0219169083151502179055503373ffffffffffffffffffffffffffffffffffffffff167f954c56630776f697dcdbcd8b735d0d97d82b2be631e6673fd56563a1559ede5d8260016000858152602001908152602001600020600201544260405161030293929190610ac0565b60405180910390a250565b60008054906101000a900473ffffffffffffffffffffffffffffffffffffffff1673ffffffffffffffffffffffffffffffffffffffff163373ffffffffffffffffffffffffffffffffffffffff161461039b576040517f08c379a000000000000000000000000000000000000000000000000000000000815260040161039290610b43565b60405180910390fd5b600081116103de576040517f08c379a00000000000000000000000000000000000000000000000000000000081526004016103d590610bd5565b60405180910390fd5b600360008154809291906103f190610c24565b919050555060006003549050604051806080016040528082815260200184815260200183815260200160011515815250600160008381526020019081526020016000206000820151816000015560208201518160010190816104539190610e78565b506040820151816002015560608201518160030160006101000a81548160ff0219169083151502179055509050507f92c8fbb6f3887e1068fe663eb41f1eaa90bea0e5044f45ab464a23a934f2b88f8184846040516104b493929190610f4a565b60405180910390a1505050565b60026020528160005260406000206020528060005260406000206000915091509054906101000a900460ff1681565b600160205280600052604060002060009150905080600001549080600101805461051990610c9b565b80601f016020809104026020016040519081016040528092919081815260200182805461054590610c9b565b80156105925780601f1061056757610100808354040283529160200191610592565b820191906000526020600020905b81548152906001019060200180831161057557829003601f168201915b5050505050908060020154908060030160009054906101000a900460ff16905084565b6000604051905090565b600080fd5b600080fd5b6000819050919050565b6105dc816105c9565b81146105e757600080fd5b50565b6000813590506105f9816105d3565b92915050565b600060208284031215610615576106146105bf565b5b6000610623848285016105ea565b91505092915050565b600080fd5b600080fd5b6000601f19601f8301169050919050565b7f4e487b7100000000000000000000000000000000000000000000000000000000600052604160045260246000fd5b61067f82610636565b810181811067ffffffffffffffff8211171561069e5761069d610647565b5b80604052505050565b60006106b16105b5565b90506106bd8282610676565b919050565b600067ffffffffffffffff8211156106dd576106dc610647565b5b6106e682610636565b9050602081019050919050565b82818337600083830152505050565b6000610715610710846106c2565b6106a7565b90508281526020810184848401111561073157610730610631565b5b61073c8482856106f3565b509392505050565b600082601f8301126107595761075861062c565b5b8135610769848260208601610702565b91505092915050565b60008060408385031215610789576107886105bf565b5b600083013567ffffffffffffffff8111156107a7576107a66105c4565b5b6107b385828601610744565b92505060206107c4858286016105ea565b9150509250929050565b600073ffffffffffffffffffffffffffffffffffffffff82169050919050565b60006107f9826107ce565b9050919050565b610809816107ee565b811461081457600080fd5b50565b60008135905061082681610800565b92915050565b60008060408385031215610843576108426105bf565b5b600061085185828601610817565b9250506020610862858286016105ea565b9150509250929050565b60008115159050919050565b6108818161086c565b82525050565b600060208201905061089c6000830184610878565b92915050565b6108ab816105c9565b82525050565b600081519050919050565b600082825260208201905092915050565b60005b838110156108eb5780820151818401526020810190506108d0565b60008484015250505050565b6000610902826108b1565b61090c81856108bc565b935061091c8185602086016108cd565b61092581610636565b840191505092915050565b600060808201905061094560008301876108a2565b818103602083015261095781866108f7565b905061096660408301856108a2565b6109736060830184610878565b95945050505050565b7f5175657374206973206e6f742061637469766500000000000000000000000000600082015250565b60006109b26013836108bc565b91506109bd8261097c565b602082019050919050565b600060208201905081810360008301526109e1816109a5565b9050919050565b7f496e76616c696420717565737420494400000000000000000000000000000000600082015250565b6000610a1e6010836108bc565b9150610a29826109e8565b602082019050919050565b60006020820190508181036000830152610a4d81610a11565b9050919050565b7f596f7520616c726561647920636f6d706c657465642074686973207175657374600082015250565b6000610a8a6020836108bc565b9150610a9582610a54565b602082019050919050565b60006020820190508181036000830152610ab981610a7d565b9050919050565b6000606082019050610ad560008301866108a2565b610ae260208301856108a2565b610aef60408301846108a2565b949350505050565b7f4f6e6c7920746865206f776e65722063616e2061646420717565737473000000600082015250565b6000610b2d601d836108bc565b9150610b3882610af7565b602082019050919050565b60006020820190508181036000830152610b5c81610b20565b9050919050565b7f585020726577617264206d757374206265206120706f736974697665206e756d60008201527f6265720000000000000000000000000000000000000000000000000000000000602082015250565b6000610bbf6023836108bc565b9150610bca82610b63565b604082019050919050565b60006020820190508181036000830152610bee81610bb2565b9050919050565b7f4e487b7100000000000000000000000000000000000000000000000000000000600052601160045260246000fd5b6000610c2f826105c9565b91507fffffffffffffffffffffffffffffffffffffffffffffffffffffffffffffffff8203610c6157610c60610bf5565b5b600182019050919050565b7f4e487b7100000000000000000000000000000000000000000000000000000000600052602260045260246000fd5b60006002820490506001821680610cb357607f821691505b602082108103610cc657610cc5610c6c565b5b50919050565b60008190508160005260206000209050919050565b60006020601f8301049050919050565b600082821b905092915050565b600060088302610d2e7fffffffffffffffffffffffffffffffffffffffffffffffffffffffffffffffff82610cf1565b610d388683610cf1565b95508019841693508086168417925050509392505050565b6000819050919050565b6000610d75610d70610d6b846105c9565b610d50565b6105c9565b9050919050565b6000819050919050565b610d8f83610d5a565b610da3610d9b82610d7c565b848454610cfe565b825550505050565b600090565b610db8610dab565b610dc3818484610d86565b505050565b5b81811015610de757610ddc600082610db0565b600181019050610dc9565b5050565b601f821115610e2c57610dfd81610ccc565b610e0684610ce1565b81016020851015610e15578190505b610e29610e2185610ce1565b830182610dc8565b50505b505050565b600082821c905092915050565b6000610e4f60001984600802610e31565b1980831691505092915050565b6000610e688383610e3e565b9150826002028217905092915050565b610e81826108b1565b67ffffffffffffffff811115610e9a57610e99610647565b5b610ea48254610c9b565b610eaf828285610deb565b600060209050601f831160018114610ee25760008415610ed0578287015190505b610eda8582610e5c565b865550610f42565b601f198416610ef086610ccc565b60005b82811015610f1857848901518255600182019150602085019450602081019050610ef3565b86831015610f355784890151610f31601f891682610e3e565b8355505b6001600288020188555050505b505050505050565b6000606082019050610f5f60008301866108a2565b8181036020830152610f7181856108f7565b9050610f8060408301846108a2565b94935050505056fea2646970667358221220625e9ec59747c341108a05d28e5f70fb378420d1b78a305c16812ff3ce09760664736f6c63430008110033",
  "immutableReferences": {},
  "source": "// SPDX-License-Identifier: GPL-3.0\r\npragma solidity ^0.8.0;\r\n\r\ncontract QuestManager {\r\n    struct Quest {\r\n        uint id;\r\n        string description;\r\n        uint xpReward;\r\n        bool isActive;\r\n    }\r\n\r\n    address private owner;\r\n    mapping(uint => Quest) public quests;\r\n    mapping(address => mapping(uint => bool)) public completed;\r\n    uint private questCount;\r\n\r\n    event QuestAdded(uint id, string description, uint xpReward);\r\n    event QuestCompleted(address indexed player, uint questId, uint xpReward, uint timestamp);\r\n\r\n    constructor() {\r\n        owner = msg.sender;\r\n        questCount = 0;\r\n    }\r\n\r\n    function addQuest(string memory _description, uint _xpReward) public {\r\n        require(msg.sender == owner, \"Only the owner can add quests\");\r\n        require(_xpReward > 0, \"XP reward must be a positive number\");    \r\n\r\n        questCount++;\r\n        uint id = questCount;\r\n        quests[id] = Quest(id, _description, _xpReward, true);\r\n        emit QuestAdded(id, _description, _xpReward);\r\n    }\r\n\r\n    function completeQuest(uint _id) public {\r\n        require(quests[_id].isActive == true, \"Quest is not active\");\r\n        require(_id <= questCount, \"Invalid quest ID\");\r\n        require(!completed[msg.sender][_id], \"You already completed this quest\");\r\n\r\n        completed[msg.sender][_id] = true;\r\n\r\n        emit QuestCompleted(msg.sender, _id, quests[_id].xpReward, block.timestamp);\r\n    }\r\n\r\n}\r\n",
  "sourcePath": "C:\\Users\\franc\\OneDrive\\PERSONAL\\CODE\\ChainQuest\\contracts\\contracts\\QuestManager.sol",
  "compiler": {
    "name": "solc",
    "version": "0.8.17+commit.8df45f5f.Emscripten.clang"
  },
  "schemaVersion": "3.4.16",
  "updatedAt": "2025-08-05T15:17:28.969Z",
  "networkType": "ethereum",
  "devdoc": {
    "kind": "dev",
    "methods": {},
    "version": 1
  },
  "userdoc": {
    "kind": "user",
    "methods": {},
    "version": 1
  }
}